:02000000ff00ff
:080002004c6174746963650030
:17000a00694345637562653220323031372e30382e32373934300069
:15002100506172743a2069434534304c50384b2d434d3831003f
:1a003600446174653a204e6f76203720323032302031323a31353a303900a4
:0200500000ffaf
:040052007eaa997e6b
:02005600510057
:020058000105a0
:03005a00920020f1
:03005d00620367d4
:030060007201101a
:0300630082000018
:02006600110087
:02006800010194
:20006a00000000000000000000000000000000000000000000000000000000000000000076
:20008a00000000000000000000000000000000000000000000000000000000000000000056
:2000aa00000000000000000000000000000000000000000000000000000000000000000036
:0d00ca000000000000000000000000000029
:20154700000200000000000000000000000000000000000000000000000000000000000082
:20156700000000000000000000000000000000000000000000000000000000000000000064
:20158700000000000000000000000000000000000000000000000000000000000000000044
:0d15a7000000000000000000000000000037
:2015b400000000000000000000000000000000000000000000000000000000000000000017
:2015d4000000000000000000000000000000000000000000000000000000000000000000f7
:2015f4000000000000000000000000000000000000000000000000000000000000000000d7
:0d16140000000000000000000000000000c9
:201621000000000000000000000000000000000000000000000000000000000000000000a9
:20164100000000000000000000000000000000000000000000000000000000000000000089
:20166100000000000000000000000000000000000000000000000000000000000000000069
:0d168100000000000000000000000000005c
:20168e0000000000000000000000000000000000000000000000000000000000000000003c
:2016ae0000000000000000000000000000000000000000000000000000000000000000001c
:2016ce000000000000000000000000000000000000000000000000000000000000000000fc
:0d16ee0000000000000000000000000000ef
:2016fb000000000000000000000000000000000000000000000000000000000000000000cf
:20171b000000000000000000000000000000000000000000000000000000000000000000ae
:20173b0000000000000000000000000000000000000000000000000000000000000000008e
:0d175b000000000000000000000000000081
:2017680000020000000000000000000000000000000000000000000000000000000000005f
:20178800000000000000000000000000000000000000000000000000000000000000000041
:2017a800000000000000000000000000000000000000000000000000000000000000000021
:0d17c8000000000000000000000000000014
:2017d5000000000000000000000000000000000000000000000000000000000000000000f4
:2017f5000000000000000000000000000000000000000000000000000000000000000000d4
:201815000000000000000000000000000000000000000000000000000000000000000000b3
:0d18350000000000000000000000000000a6
:20184200000000000000000000000000000000000000000000000000000000000000000086
:20186200000000000000000000000000000000000000000000000000000000000000000066
:20188200000000000000000000000000000000000000000000000000000000000000000046
:0d18a2000000000000000000000000000039
:2018af00000100000000000000000000000000000000000000000000000000000000000018
:2018cf000000000000000000000000000000000000000000000000000000000000000000f9
:2018ef000000000000000000000000000000000000000000000000000000000000000000d9
:0d190f0000000000000000000000000000cb
:20191c0000000080000000000000000000000000000000000000000000000000000000002b
:20193c0000000000000000000000000000000000000000000000000000000000000000008b
:20195c0000000000000000000000000000000000000000000000000000000000000000006b
:0d197c00000000000000000000000000005e
:2019890000000000000000000000000000000000000000000000000000000000000000003e
:2019a90000000000000000000000000000000000000000000000000000000000000000001e
:2019c9000000000000000000000000000000000000000000000000000000000000000000fe
:0d19e90000000000000000000000000000f1
:2019f6000000000000000000000000000000000000000000000000000000000000000000d1
:201a16000000000000000000000000000000000000000000000000000000000000000000b0
:201a3600000000000000000000000000000000000000000000000000000000000000000090
:0d1a56000000000000000000000000000083
:201a63008000000000000000000000000000000000000000000000000000000000000000e3
:201a8300000000000000000000000000000000000000000000000000000000000000000043
:201aa300000000000000000000000000000000000000000000000000000000000000000023
:0d1ac3000000000000000000000000000016
:201ad0000000000000000000000000000000000000000000000000000000000000000000f6
:20301a00000001000000000000000000000000000000000000000000000000000000000095
:20303a00000000000000000000000000000000000000000000000000000000000000000076
:20305a00000000000000000000000000000000000000000000000000000000000000000056
:0d307a000000000000000000000000000049
:203087000000028000000000000000000000000000000000000000000000000000000000a7
:2030a700000000000000000000000000000000000000000000000000000000000000000009
:2030c7000000000000000000000000000000000000000000000000000000000000000000e9
:0d30e70000000000000000000000000000dc
:2030f4000000000000000000000000000000000000000000000000000000000000000000bc
:2031140000000000000000000000000000000000000000000000000000000000000000009b
:2031340000000000000000000000000000000000000000000000000000000000000000007b
:0d315400000000000000000000000000006e
:2031610000000000000000000000000000000000000000000000000000000000000100004d
:2031810000000000000000000000000000000000000000000000000000000000000000002e
:2031a10000000000000000000000000000000000000000000000000000000000000000000e
:0d31c1000000000000000000000000000001
:2031ce000000000000000000000000000000000000000000000000000000000000000000e1
:20385100000000000000000000000002000000000000000000000000000000000000000055
:20387100000000000000000000000000000000000000000000000000000000000000000037
:0d389100000000000000000000000000002a
:20389e00000000000000000000000000000000000000000000000100000000000004000005
:2038be000000000000000000000000000000000000000000000000000000000000000000ea
:2038de000000000000000000000000000000000000000000000000000000000000000000ca
:0d38fe0000000000000000000000000000bd
:20390b0000000000000000000000000000000000000000000000000000000000000000009c
:20392b0000000000000000000000000000000000000000000000000000000000000000007c
:20394b0000000000000000000000000000000000000000000000000000000000000000005c
:0d396b00000000000000000000000000004f
:2039780000000000000000000000000000000000000000000000000000000000000000002f
:2039980000000000000000000000000000000000000000000000000000000000000000000f
:2039b8000000000000000000000000000000000000000000000000000000000000000000ef
:0d39d80000000000000000000000000000e2
:2039e5000000000000000000000000000000000000000000000000000000000000000000c2
:203a05000000000000000000000000000000000000000000000000000000000000000000a1
:203a2500000000000000000000000000000000000000000000000000000000000000000081
:0d3a45000000000000000000000000000074
:203a5200000000000000000000000000000000000000000000000000000000000000000054
:203a7200000000000000000000000000000000000000000000000000000000000000000034
:203a9200000000000000000000000000000000000000000000000000000000000000000014
:0d3ab2000000000000000000000000000007
:203abf000000000000000000000000000000000000000000000000000000000000000000e7
:203adf000000000000000000000000000000000000000000000000000000000000000000c7
:203aff000000000000000000000000000000000000000000000000000000000000000000a7
:0d3b1f000000000000000000000000000099
:203b2c00000000000000000000000000000000000000000000000000000000000000000079
:203b4c00000000000000000000000000000000000000000000000000000000000000000059
:203b6c00000000000000000000000000000000000000000000000000000000000000000039
:0d3b8c00000000000000000000000000002c
:203b990000000000000000000000000000000000000000000000000000000000000000000c
:203bb9000000000000000000000000000000000000000000000000000000000000000000ec
:203bd9000000000000000000000000000000000000000000000000000000000000000000cc
:0d3bf90000000000000000000000000000bf
:203c060000000000000000000000000000000000000000000000000000000000000400009a
:203c260000000000000000000000000000000000000000000000000000000000000000007e
:203c460000000000000000000000000000000000000000000000000000000000000000005e
:0d3c66000000000000000000000000000051
:203c7300000000000000000000000000000000000000000000000000010000000000000030
:203c9300000000000000000000000000000000000000000000000000000000000000000011
:203cb3000000000000000000000000000000000000000000000000000000000000000000f1
:0d3cd30000000000000000000000000000e4
:203ce0000000000000000000000000000000000000000000000000000000000000000000c4
:203d00000000000000000000000000000000000000000000000000000000000000000000a3
:203d2000000000000000000000000000000000000000000000000000000000000000000083
:0d3d40000000000000000000000000000076
:203d4d00000000000000000000000000000000000000000000000000000000000000000056
:203d6d00000000000000000000000000000000000000000000000000000000000000000036
:203d8d00000000000000000000000000000000000000000000000000000000000000000016
:0d3dad000000000000000000000000000009
:203dba000000000000000000000000000000000000000000000000000000000000001001d8
:203dda008000000000000614f014000000000000000000000000000000000000000000002b
:203dfa000000000000000000000000000000000000000000000000000000000000000000a9
:0d3e1a00000000000000000000000000009b
:203e270000000000000000000000000000000000000000000000000000000000000000007b
:203e4700000000000000001dcc14100000000000000000000000000000000000000000004e
:203e670000000000000000000000000000000000000000000000000000000000000000003b
:0d3e8700000000000000000000000000002e
:203e94000000000000000000000000000000000000000000000000000000000000280000e6
:203eb4000bb81500a002000ee0540000000000000000000000000000000000000000000032
:203ed4000000000000000000000000000000000000000000000000000000000000000000ce
:0d3ef40000000000000000000000000000c1
:203f010000000000000000000000000000000000000000000000000000000000002000d0b0
:203f2100078000048001c00000540000000000000000000000000000000000000000000060
:203f4100000000000000000000000000000000000000000000000000000000000000000060
:0d3f61000000000000000000000000000053
:203f6e00000000000000000000000000000000000000000000000000000000000000000033
:203f8e00077c0100c0020000f41400000000000000000000000000000000000000000000c5
:203fae000000000000000000000000000000000000000000000000000000000000000000f3
:0d3fce0000000000000000000000000000e6
:203fdb000000000000000000000000000000000000000000000000000000000000000000c6
:203ffb0007b700014000401dc824000000000000000000000000000000000000000000005e
:20401b00000000000000000000000000000000000000000000000000000000000000000085
:0d403b000000000000000000000000000078
:20404800000000000000000000000000000000000000000000000000000000000000000058
:204068000be281020000028faa040000000000000000000000000000000000000000000089
:20408800000000000000000000000000000000000000000000000000000000000000000018
:0d40a800000000000000000000000000000b
:2040b5000000000000000000000000000000000000000000000000000000000000000000eb
:2040d500b78000000000043d9d1400000000000000000000000000000000000000000000a2
:2040f5000000000000000000000000000000000000000000000000000000000000000000ab
:0d411500000000000000000000000000009d
:204122000000000000000000000000000000000000000000000000000000000000000081fc
:20414200bfea8500000000000000000000000000000000000000000000000000000000002f
:2041620000000000000000000000000000000000000000000000000000000000000000003d
:0d4182000000000000000000000000000030
:20418f000000000000000000000000000000000000000000000000000000000000000030e0
:2041af00ab71000000000200000000000000000000000000000000000000000000000000d2
:2041cf000000000000000000000000000000000000000000000000000000000000000000d0
:0d41ef0000000000000000000000000000c3
:2041fc00000000000000000000000000000000000000000000000000000000000000400063
:20421c00100000000100000000000000000000000000000000000000000000000000000071
:20423c00000000000000000000000000000000000000000000000000000000000000000062
:0d425c000000000000000000000000000055
:20426900000000000000000000000000000000000000000000000000000000000000000035
:20428900d00000000002400000000000000000000000000000000000000000000000000003
:2042a9000000000000000000000000000000000000000000000000000000000000000000f5
:0d42c90000000000000000000000000000e8
:2042d600000000000000000000000000000000000000000000000000000000000000009830
:2042f6001fa5c0800000604000000000000000000000000000000000000000000000000004
:20431600000000000000000000000000000000000000000000000000000000000000000087
:0d433600000000000000000000000000007a
:2043430000000000000000000000000000000000000000000000000000000000000000500a
:204363008b63c02000000200000000038000000000000000000000000000000000000000e7
:2043830000000000000000000000000000000000000000000000000000000000000000001a
:0d43a300000000000000000000000000000d
:2043b00000000000000000000000000000000000000000000000000000000000000000806d
:2043d000030108004000000000000000000000000000000000000000000000000000000081
:2043f0000000000000000000000000000000000000000000000000000000000000000000ad
:0d441000000000000000000000000000009f
:20441d0000000000000000000000000000000000000000000000000000000000000000106f
:20443d0007b400004000000000000000000000000000000000000000000000000000000064
:20445d0000000000000000000000000000000000000000000000000000000000000000003f
:0d447d000000000000000000000000000032
:20448a00000000000000000000000000000000000000000000000000000000000000000012
:2044aa001d30080000000664c2100000000000000000000000000000000000000000000061
:2044ca000000000000000000000000000000000000000000000000000000000000000000d2
:0d44ea0000000000000000000000000000c5
:2044f700000000000000000000000000000000000000000000000000000000000000001095
:2045170087ac0000000003eed500000000000000000000000000000000000000000000008b
:20453700000000000000000000000000000000000000000000000000000000000000000064
:0d4557000000000000000000000000000057
:2045640000000000000000000000000000000000000000000000000000000000002800000f
:20458400a02a8d08a002000f8c542000000000000000000000000000000000000000000007
:2045a4000000000000000000000000000000000000000000000000000000000000000000f7
:0d45c40000000000000000000000000000ea
:2045d10000000000000000000000000000000000000000000000000000000000002000901a
:2045f10000014c008000400e0c04000000000000000000000000000000000000000000007f
:20461100000000000000000000000000000000000000000000000000000000000000000089
:0d463100000000000000000000000000007c
:20463e00000000000000000000000000000000000000000000000000000000000000001943
:20465e0093610102400142bc90140000000000000000000000000000000000000000000062
:20467e0000000000000000000000000000000000000000000000000000000000000000001c
:0d469e00000000000000000000000000000f
:2046ab000000000000000000000000000000000000000000000000000000000000000009e6
:2046cb009564800440014007dc1400000000000000000000000000000000000000000000da
:2046eb000000000000000000000000000000000000000000000000000000000000000000af
:0d470b0000000000000000000000000000a1
:20471800000000000000000000000000000000000000000000000000000000000000000081
:20473800e000000000036001c5040000000000000000000000000000000000000000000054
:20475800000000000000000000000000000000000000000000000000000000000000000041
:0d4778000000000000000000000000000034
:204785000000000000000000000000000000000000000000000000000000000000000050c4
:2047a50000000000000040250a040000000000000000000000000000000000000000000081
:2047c5000000000000000000000000000000000000000000000000000000000000000000d4
:0d47e50000000000000000000000000000c7
:2047f200000000000000000000000000000000000000000000000040000000000000381817
:204812000fe881000000607680540000000000000000000000000000000000000000000064
:20483200000000000000000000000000000000000000000000000000000000000000000066
:0d4852000000000000000000000000000059
:20485f00000000000000000000000000000000000000000000000000000000000000000039
:20487f000d2380000000022d05040000000000000000000000000000000000000000000031
:20489f000000000000000000000000000000000000000000000000000000000000000000f9
:0d48bf0000000000000000000000000000ec
:2048cc000000000000000000000000000000000000000000000000000000000000000000cc
:2048ec0010703c0000000000000000000000000000000000000000000000000000000000f0
:20490c0000000000000000000000000000000000000000000000000000000000000000008b
:0d492c00000000000000000000000000007e
:2049390000000000000000000000000000000000000000000000000000000000000000005e
:2049590080403c00000003c00000000000000000000000000000000000000000000000007f
:2049790000000000000000000000000000000000000000000000000000000000000000001e
:0d4999000000000000000000000000000011
:2049a600000000000000000000000000000000000000000000000000000000000000005899
:2049c6000001690000000041e0f00000000000000000000000000000000000000000000056
:2049e6000000000000000000000000000000000000000000000000000000000000000000b1
:0d4a060000000000000000000000000000a3
:204a1300000000000000000000000000000000000000000000000000000000000000000083
:204a3300070296000000020100f010000000000000000000000000000000000000000000c1
:204a5300000000000000000000000000000000000000000000000000000000000000000043
:0d4a73000000000000000000000000000036
:204a8000000000000000000000000000000000000000000000000000000000000010009076
:204aa0000000000040000014b01000000000000000000000000000000000000000000000e2
:204ac0000000000000000000000000000000000000000000000000000000000000000000d6
:0d4ae00000000000000000000000000000c9
:204aed00000000000000000000000000000000000000000000000000000000000010001089
:204b0d0000000000c00003d6fc1000000000000000000000000000000000000000000000e3
:204b2d00000000000000000000000000000000000000000000000000000000000000000068
:0d4b4d00000000000000000000000000005b
:204b5a0000000000000000000000000000000000000000000000000000000000000000003b
:204b7a0000000000000000000000000000000000000000000000000000000000000000001b
:2053de0000000000000000000000000000000000000000000000000000000000000280002d
:2053fe0000000000000000000000000000000000000000000000000000000000000000008f
:20541e0000000000000000000000000000000000000000000000000000000000000000006e
:0d543e000000000000000000000000000061
:20544b00000000000000000000000000000000000000000000000000000000000000000041
:205b88000000000000000000000000000000000000000000000000000100000000000000fc
:205ba8000000000000000000000000000000000000000000000000000000000000000000dd
:205bc8000000000000000000000000000000000000000000000000000000000000000000bd
:0d5be80000000000000000000000000000b0
:205bf500000000000000000000000000000000000000000000000000000000000000000090
:20713f00000000000000000000000000000000000000000000000000000000000000180018
:20715f00000000000000000000000000000000000000000000000000000000000000000010
:20717f000000000000000000000000000000000000000000000000000000000000000000f0
:0d719f0000000000000000000000000000e3
:2071ac000000000000000000000000000000000000000000000000000000000000000000c3
:2071cc000000000000000000000000000000000000000000000000000000000000000000a3
:2071ec00000000000000000000000000000000000000000000000000000000000000000083
:0d720c000000000000000000000000000075
:20721900000000000000000000000000000000000000000000000000000000000000000055
:20723900000000000000000000000000000000000000000000000000000000000000000035
:20725900000000000000000000000000000000000000000000000000000000000000000015
:0d7279000000000000000000000000000008
:207286000000000000000000000000000000000000000000000000000000000000000000e8
:2072a6000000000000000000000000000000000000000000000000000000000000000000c8
:2072c6000000000000000000000000000000000000000000000000000000000000000000a8
:0d72e600000000000000000000000000009b
:2072f30000000000000000000000000000000000000000000000000000000000000000007b
:2073130000000000000000000000000000000000000000000000000000000000000000005a
:2073330000000000000000000000000000000000000000000000000000000000000000003a
:0d735300000000000000000000000000002d
:2073600000000000000000000000000000000000000000000000000000000000000000000d
:207380000000000000000000000000000000000000000000000000000000000000000000ed
:2073a0000000000000000000000000000000000000000000000000000000000000000000cd
:0d73c00000000000000000000000000000c0
:2073cd000000000000000000000000000000000000000000000000000000000000000000a0
:2073ed00000000000000000000000000000000000000000000000000000000000000000080
:20740d0000000000000000000000000000000000000000000000000000000000000000005f
:0d742d000000000000000000000000000052
:02743a00000050
:02743c0011013c
:02743e0001014a
:2074400000000000000000000000000000000000000000000000000000000000000000002c
:2074600000000000000000000000000000000000000000000000000000000000000000000c
:207480000000000000000000000000000000000000000000000000000000000000000000ec
:0d74a00000000000000000000000000000df
:208b3e00000200000000000000000000000000000000000000000000000000000000000015
:208b5e000000000000000000000000000000000000000000000000000000000000000000f7
:208b7e000000000000000000000000000000000000000000000000000000000000000000d7
:0d8b9e0000000000000000000000000000ca
:208bab000000000000000000000000000000000000000000000000000000000000000000aa
:208bcb0000000000000000000000000000000000000000000000000000000000000000008a
:208beb0000000000000000000000000000000000000000000000000000000000000000006a
:0d8c0b00000000000000000000000000005c
:208c180000000000000000000000000000000000000000000000000000000000000000003c
:208c380000000000000000000000000000000000000000000000000000000000000000001c
:208c58000000000000000000000000000000000000000000000000000000000000000000fc
:0d8c780000000000000000000000000000ef
:208c85000001000000000000000000000000000000000000000000000000000000000000ce
:208ca5000000000000000000000000000000000000000000000000000000000000000000af
:208cc50000000000000000000000000000000000000000000000000000000000000000008f
:0d8ce5000000000000000000000000000082
:208cf200000000000000000000000000000000000000000000000000000000000000000062
:208d1200000000000000000000000000000000000000000000000000000000000000000041
:208d3200000000000000000000000000000000000000000000000000000000000000000021
:0d8d52000000000000000000000000000014
:208d5f000000000000000000000000000000000000000000000000000000000000000000f4
:208d7f000000000000000000000000000000000000000000000000000000000000000000d4
:208d9f000000000000000000000000000000000000000000000000000000000000000000b4
:0d8dbf0000000000000000000000000000a7
:208dcc00800000000000000000000000000000000000000000000000000000000000000007
:208dec00000000000000000000000000000000000000000000000000000000000000000067
:208e0c00000000000000000000000000000000000000000000000000000000000000000046
:0d8e2c000000000000000000000000000039
:208e3900000080000000000000000000000000000000000000000000000000000000000099
:208e59000000000000000000000000000000000000000000000000000000000000000000f9
:208e79000000000000000000000000000000000000000000000000000000000000000000d9
:0d8e990000000000000000000000000000cc
:208ea6000000000000000000000000000000000000000000000000000000000000000000ac
:209c46001000000000000000000000000000000000000000000000000000000000000000ee
:209c66000000000000000000000000000000000000000000000000000000000000000000de
:209c86000000000000000000000000000000000000000000000000000000000000000000be
:0d9ca60000000000000000000000000000b1
:209cb300000000000000000000000000000000000000000000000000000000000000000091
:20b78600100000000000000000000000000000000000000000000000000000000000000093
:20b7a600000000000000000000000000000000000000000000000000000000000000000083
:20b7c600000000000000000000000000000000000000000000000000000000000000000063
:0db7e6000000000000000000000000000056
:20b7f300000000000000000000000000000000000000000000000000000000000000000036
:20cdaa00000000000000000000000000000000000000000000000000000000000000020067
:20cdca00000000000000000000000000000000000000000000000000000000000000000049
:20cdea00000000000000000000000000000000000000000000000000000000000000000029
:0dce0a00000000000000000000000000001b
:20ce17000000000000000000002000000000000000000000000000000000000000000100da
:20ce37000000000000000000000000000000000000000000000000000000000000000000db
:20ce57000000000000000000000000000000000000000000000000000000000000000000bb
:0dce770000000000000000000000000000ae
:20ce840000000000000000000000000000000000000000000000000000000000000000008e
:20cea40000000000000000000000000000000000000000000000000000000000000000006e
:20cec40000000000000000000000000000000000000000000000000000000000000000004e
:0dcee4000000000000000000000000000041
:20cef100000000000000000000000000000000000000000000000000000000000000000021
:20cf1100000000000000000000000000000000000000000000000000000000000000000000
:20cf31000000000000000000000000000000000000000000000000000000000000000000e0
:0dcf510000000000000000000000000000d3
:20cf5e000002000000000000000000000000000000000000000000000000000000000000b1
:20cf7e00000000000000000000000000000000000000000000000000000000000000000093
:20cf9e00000000000000000000000000000000000000000000000000000000000000000073
:0dcfbe000000000000000000000000000066
:20cfcb00000000000000000000000000000000000000000000000000000000000000000046
:20cfeb00000000000000000000000000000000000000000000000000000000000000000026
:20d00b00000000000000000000000000000000000000000000000000000000000000000005
:0dd02b0000000000000000000000000000f8
:20d038000000000000000000000000000000000000000000000000000000000000000000d8
:20d058000000000000000000000000000000000000000000000000000000000000000000b8
:20d07800000000000000000000000000000000000000000000000000000000000000000098
:0dd09800000000000000000000000000008b
:20d0a50000010000000000000000000000000000000000000000000000000000000000006a
:20d0c50000000000000000000000000000000000000000000000000000000000000000004b
:20d0e50000000000000000000000000000000000000000000000000000000000000000002b
:0dd10500000000000000000000000000001d
:20d1120080000000000000000000000000000000000000000000000000000000000000007d
:20d132000000000000000000000000000000000000000000000000000000000000000000dd
:20d152000000000000000000000000000000000000000000000000000000000000000000bd
:0dd1720000000000000000000000000000b0
:20d17f00000000000000000000000000000000000000000000000000000000000000000090
:20d19f00000000000000000000000000000000000000000000000000000000000000000070
:20d1bf00000000000000000000000000000000000000000000000000000000000000000050
:0dd1df000000000000000000000000000043
:20d1ec008000000000000000000000000000000000000000000000000000000000000000a3
:20d20c00000000000000000000000000000000000000000000000000000000000000000002
:20d22c000000000000000000000000000000000000000000000000000000000000000000e2
:0dd24c0000000000000000000000000000d5
:20d259000000000000000000000000000000000000000000000000000000000000000000b5
:20d27900000000000000000000000000000000000000000000000000000000000000000095
:20d29900000000000000000000000000000000000000000000000000000000000000000075
:0dd2b9000000000000000000000000000068
:20d2c600100000000000000000000000000000000000000000000100000000000000000037
:20d2e600000000000000000000000000000000000000000000000000000000000000000028
:20d30600000000000000000000000000000000000000000000000000000000000000000007
:0dd3260000000000000000000000000000fa
:20d333000000000000000000000000000000000000000000000000000000000000000000da
:20e21a000028000000000000000000000000000000000000000000000000000000000000bc
:20e23a000000000000000000000000000000000000000000000000000000000000000000c4
:20e25a000000000000000000000000000000000000000000000000000000000000000000a4
:0de27a000000000000000000000000000097
:20e28700000400000000000000000000000000000000000000000000000000000000000073
:20e2a700000000000000000000000000000000000000000000000000000000000000000057
:20e2c700000000000000000000000000000000000000000000000000000000000000000037
:0de2e700000000000000000000000000002a
:20e2f40000000000000000000000000000000000000000000000000000000000000000000a
:20e314000000000000000000000000000000000000000000000000000000000000000000e9
:20e334000000000000000000000000000000000000000000000000000000000000000000c9
:0de3540000000000000000000000000000bc
:20e3610000000000000000000000000000000000000000000000000000000000000000009c
:20e3810000000000000000000000000000000000000000000000000000000000000000007c
:20e3a10000000000000000000000000000000000000000000000000000000000000000005c
:0de3c100000000000000000000000000004f
:20e3ce0000000000000000000000000000000000000000000000000000000000000000002f
:20e3ee0000000000000000000000000000000000000000000000000000000000000000000f
:20e40e000000000000000000000000000000000000000000000000000000000000000000ee
:0de42e0000000000000000000000000000e1
:20e43b000000000000000000000000000000000000000000000000000000000000000000c1
:20e45b000000000000000000000000000000000000000000000000000000000000000000a1
:20e47b00000000000000000000000000000000000000000000000000000000000000000081
:0de49b000000000000000000000000000074
:20e4a800000000000000000000000000000000000000000000000000000000000000000054
:20e4c800000000000000000000000000000000000000000000000000000000000000000034
:20e4e800000000000000000000000000000000000000000000000000000000000000000014
:0de508000000000000000000000000000006
:20e515000000000000000000000000000000000000000000000000000000000000000000e6
:20e535000000000000000000000000000000000000000000000000000000000000000000c6
:20e555000000000000000000000000000000000000000000000000000000000000000000a6
:0de575000000000000000000000000000099
:20e58200300000000000000000000000000000000000000000000000000000000000000049
:20e5a200000000000000000000000000000000000000000000000000000000000000000059
:20e5c200000000000000000000000000000000000000000000000000000000000000000039
:0de5e200000000000000000000000000002c
:20e5ef002000000000000000000000000000000000000000000000000000000000000000ec
:20e60f000000000000000000000000000000000000000000000000000000000000000000eb
:20e62f000000000000000000000000000000000000000000000000000000000000000000cb
:0de64f0000000000000000000000000000be
:20e65c0000000000000000000000000000000000000000000000000000000000000000009e
:20e67c0000000000000000000000000000000000000000000000000000000000000000007e
:20e69c0000000000000000000000000000000000000000000000000000000000000000005e
:0de6bc000000000000000000000000000051
:20e6c900000000000000000000000000000000000000000000000000000000000000000031
:20e6e900000000000000000000000000000000000000000000000000000000000000000011
:20e709000000000000000000000000000000000000000000000000000000000000000000f0
:0de7290000000000000000000000000000e3
:20e736000000000000000000000000000000000000000000000000000000000000000000c3
:20e756000000000000000000000000000000000000000000000000000000000000000000a3
:20e77600000000000000000000000000000000000000000000000000000000000000000083
:0de796000000000000000000000000000076
:20e7a300000000000000000000000000000000000000000000000000000000000000000056
:20e7c300000000000000000000000000000000000000000000000000000000000000000036
:20e7e300000000000000000000000000000000000000000000000000000000000000000016
:0de803000000000000000000000000000008
:02e81000000006
:02e812001102f1
:02e81400010100
:20e816000000000000000000000000000000000000000000000000000000000000000000e2
:20e836000000000000000000000000000000000000000000000000000000000000000000c2
:20e856000000000000000000000000000000000000000000000000000000000000000000a2
:0de876000000000000000000000000000095
:20ed9f00000000000000000000000000000000000000000000000000020000000000000052
:20edbf00000000000000000000000000000000000000000000000000000000000000000034
:20eddf00000000000000000000000000000000000000000000000000000000000000000014
:0dedff000000000000000000000000000007
:20ee0c000000000000000000000000000000000000000000000000000000000000000000e6
:20f5b6004000000000000000000000000000000000000000000000000000000000000000f5
:20f5d600000000000000000000000000000000000000000000000000000000000000000015
:20f5f6000000000000000000000000000000000000000000000000000000000000000000f5
:0df6160000000000000000000000000000e7
:20f623000000000000000000000000000000000000000000000000000000000000000000c7
:20f643000000000000000000000000000000000000000000000000000000000000000000a7
:20f66300000000000000000000000000000000000000000000000000000000000000000087
:0df68300000000000000000000000000007a
:20f6900000000000000000000000000000000000000000000000000000000000000000005a
:20f6b00000000000000000000000000000000000000000000000000000000000000000003a
:20f6d00000000000000000000000000000000000000000000000000000000000000000001a
:0df6f000000000000000000000000000000d
:20f6fd0080000000000000000000000000000000000000000000000000000000000000006d
:20f71d000000000000000000000000000000000000000000000000000000000000000000cc
:20f73d000000000000000000000000000000000000000000000000000000000000000000ac
:0df75d00000000000000000000000000009f
:20f76a0044000000000000000000000000000000000000000000000000000000000000003b
:20f78a0000000000000000000000000000000000000000000000000000000000000000005f
:20f7aa0000000000000000000000000000000000000000000000000000000000000000003f
:0df7ca000000000000000000000000000032
:20f7d70008000000000000000000000000000000000000000000000000000000000000000a
:20f7f7000000000000000000000000000000000000000000000000000000000000000000f2
:20f817000000000000000000000000000000000000000000000000000000000000000000d1
:0df8370000000000000000000000000000c4
:20f844000001000000000000000000000000000000000000000000000000000000000000a3
:20f86400000000000000000000000000000000000000000000000000000000000000000084
:20f88400000000000000000000000000000000000000000000000000000000000000000064
:0df8a4000000000000000000000000000057
:20f8b100000000000000000000000000000000000000000000000000000002000000000035
:20f8d100000000000000000000000000000000000000000000000000000000000000000017
:20f8f1000000000000000000000000000000000000000000000000000000000000000000f7
:0df9110000000000000000000000000000e9
:20f91e00006800000000000000000000000000000000000000000000000000000000000061
:20f93e000000000000000000000000000000000000000000000000000000000000000000a9
:20f95e00000000000000000000000000000000000000000000000000000000000000000089
:0df97e00000000000000000000000000007c
:20f98b0000000000000000000000000000000000000000000000000000000000000000005c
:020000040001f9
:2010f60040000000000000000000000000000000000000000000000000000000000000009a
:201116000000000000000000000000000000000000000000000000000000000000000000b9
:20113600000000000000000000000000000000000000000000000000000000000000000099
:0d115600000000000000000000000000008c
:2011630000000000000000000000000000000000000000000000000000000000000000006c
:2011830000000000000000000000000000000000000000000000000000000000000000004c
:2011a30000000000000000000000000000000000000000000000000000000000000000002c
:0d11c300000000000000000000000000001f
:2011d0000000000000000000000000000000000000000000000000000000000000000000ff
:2011f0000000000000000000000000000000000000000000000000000000000000000000df
:201210000000000000000000000000000000000000000000000000000000000000000000be
:0d12300000000000000000000000000000b1
:20123d00800000000000000000000000000000000000000000000000000000000000000011
:20125d00000000000000000000000000000000000000000000000000000000000000000071
:20127d00000000000000000000000000000000000000000000000000000000000000000051
:0d129d000000000000000000000000000044
:2012aa004400000000000000000000000000000000000000000000000000000000000000e0
:2012ca00000000000000000000000000000000000000000000000000000000000000000004
:2012ea000000000000000000000000000000000000000000000000000000000000000000e4
:0d130a0000000000000000000000000000d6
:201317000800000000000000000000000000000000000000000000000000000000000000ae
:20133700000000000000000000000000000000000000000000000000000000000000000096
:20135700000000000000000000000000000000000000000000000000000000000000000076
:0d1377000000000000000000000000000069
:20138400000100000000000000000000000000000000000000000000000000000000000048
:2013a400000000000000000000000000000000000000000000000000000000000000000029
:2013c400000000000000000000000000000000000000000000000000000000000000000009
:0d13e40000000000000000000000000000fc
:2013f1000000000000000000000000000000000000000000000000000000000000000000dc
:201411000000000000000000000000000000000000000000000000000000000000000000bb
:2014310000000000000000000000000000000000000000000000000000000000000000009b
:0d145100000000000000000000000000008e
:20145e00006800000000000000000000000000000000000000000000000000000000000006
:20147e0000000000000000000000000000000000000000000000000000000000000000004e
:20149e0000000000000000000000000000000000000000000000000000000000000000002e
:0d14be000000000000000000000000000021
:2014cb00000000000000000000000000000000000000000000000000000000000000000001
:201fdd000800000000000000000000000000000000000000000000000000000000000000dc
:201ffd000000000000000000000000000000000000000000000000000000000000000000c4
:20201d000000000000000000000000000000000000000000000000000000000000000000a3
:0d203d000000000000000000000000000096
:20204a00000000000000000000000000000000000000000000000000000000000000000076
:20206a00000000000000000000000000000000000000000000000000000000000000000056
:20208a00000000000000000000000000000000000000000000000000000000000000000036
:0d20aa000000000000000000000000000029
:2020b700000000000000000000000000000000000000000000000000000000000000000009
:2020d7000000000000000000000000000000000000000000000000000000000000000000e9
:2020f7000000000000000000000000000000000000000000000000000000000000000000c9
:0d211700000000000000000000000000209b
:2021240000000000000000000000000000000000000000000000000000000000000000009b
:2021440000000000000000000000000000000000000000000000000000000000000000007b
:2021640000000000000000000000000000000000000000000000000000000000000000005b
:0d218400000000000000000000000000004e
:2021910000000000000000000000000000000000000000000000000000000000000000002e
:2021b10000000000000000000000000000000000000000000000000000000000000000000e
:2021d1000000000000000000000000000000000000000000000000000000000000000000ee
:0d21f10000000000000000000000000000e1
:2021fe00000000000000000000000000000000000000000000500000000000000000000071
:20221e000000000000000000000000000000000000000000000000000000000000000000a0
:20223e00000000000000000000000000000000000000000000000000000000000000000080
:0d225e000000000000000000000000000073
:20226b00000000000000000000000000000000000000000000000000000000000200000051
:20228b00000000000000000000000000000000000000000000000000000000000000000033
:2022ab00000000000000000000000000000000000000000000000000000000000000000013
:0d22cb000000000000000000000000000006
:2022d8000000000000000000000000000000000000000000000000000000000000000000e6
:2022f8000000000000000000000000000000000000000000000000000000000000000000c6
:202318000000000000000000000000000000000000000000000000000000000000000000a5
:0d2338000000000000000000000000000098
:20234500000000000000000000000000000000000000000000000000000000000000000078
:20236500000000000000000000000000000000000000000000000000000000000000000058
:20238500000000000000000000000000000000000000000000000000000000000000000038
:0d23a500000000000000000000000000002b
:2023b20000000000000000000000000000000000000000000000000000000000000000000b
:2023d2000000000000000000000010000000000000000000000000000000000000000000db
:2023f2000000000000000000000000000000000000000000000000000000000000000000cb
:0d24120000000000000000000000000000bd
:20241f0000000000000000000000000000000000000000000000000000000000000000009d
:20243f0000000000000000000000000000000000000000000000000000000000000000007d
:20245f0000000000000000000000000000000000000000000000000000000000000000005d
:0d247f000000000000000000000000002030
:20248c00000000000000000000000000000000000000000000000000000000000000000030
:2024ac00000000000000000000000000000000000000000000000000000000000000000010
:2024cc000000000000000000000000000000000000000000000000000000000000000000f0
:0d24ec0000000000000000000000000000e3
:025be6000000bd
:025be8001103a7
:025bea000101b7
:205bec00000000000000000000000000000000000000000000000000000000000000000099
:205c0c00000000000000000000000000000000000000000000000000000000000000000078
:205c2c00000000000000000000000000000000000000000000000000000000000000000058
:0d5c4c00000000000000000000000000004b
:02cfbc00000073
:03cfbe0062007f8f
:03cfc1007200807b
:02cfc40011005a
:03cfc600820000e6
:02cfc900010362
:10cfcb000000000000000000000000000000000056
:10cfdb000000000000000000000000000000000046
:10cfeb000000000000000000000000000000000036
:10cffb000000000000000000000000000000000026
:02d7cb0000005c
:03d7cd0082008057
:02d7d000010353
:10d7d2000000000000000000000000000000000047
:10d7e2000000000000000000000000000000000037
:10d7f2000000000000000000000000000000000027
:10d802000000000000000000000000000000000016
:02dfd20000004d
:02dfd400110139
:03dfd600820000c6
:02dfd900010342
:10dfdb000000000000000000000000000000000036
:10dfeb000000000000000000000000000000000026
:10dffb000000000000000000000000000000000016
:10e00b000000000000000000000000000000000005
:02e7db0000003c
:03e7dd0082008037
:02e7e000010333
:10e7e2000000000000000000000000000000000027
:10e7f2000000000000000000000000000000000017
:10e802000000000000000000000000000000000006
:10e8120000000000000000000000000000000000f6
:02efe20000002d
:02efe400110218
:03efe600820000a6
:02efe900010322
:10efeb000000000000000000000000000000000016
:10effb000000000000000000000000000000000006
:10f00b0000000000000000000000000000000000f5
:10f01b0000000000000000000000000000000000e5
:02f7eb0000001c
:03f7ed0082008017
:02f7f000010313
:10f7f2000000000000000000000000000000000007
:10f8020000000000000000000000000000000000f6
:10f8120000000000000000000000000000000000e6
:10f8220000000000000000000000000000000000d6
:02fff20000000d
:02fff4001103f7
:03fff60082000086
:02fff900010302
:05fffb00000000000001
:020000040002f8
:0b0000000000000000000000000000f5
:10000b0000000000000000000000000000000000e5
:10001b0000000000000000000000000000000000d5
:10002b0000000000000000000000000000000000c5
:0207fb000000fc
:0307fd00820080f7
:020800000103f2
:1008020000000000000000000000000000000000e6
:1008120000000000000000000000000000000000d6
:1008220000000000000000000000000000000000c6
:1008320000000000000000000000000000000000b6
:021002000000ec
:0110040022c9
:02100500554450
:021007000106e0
:00000001FF
